{
  "contractName": "NameStorage",
  "abi": [
    {
      "inputs": [
        {
          "internalType": "string",
          "name": "_name",
          "type": "string"
        }
      ],
      "name": "storeName",
      "outputs": [],
      "stateMutability": "nonpayable",
      "type": "function"
    },
    {
      "inputs": [
        {
          "internalType": "uint256",
          "name": "index",
          "type": "uint256"
        }
      ],
      "name": "getName",
      "outputs": [
        {
          "internalType": "string",
          "name": "",
          "type": "string"
        }
      ],
      "stateMutability": "view",
      "type": "function",
      "constant": true
    },
    {
      "inputs": [],
      "name": "getAllNames",
      "outputs": [
        {
          "internalType": "string[]",
          "name": "",
          "type": "string[]"
        }
      ],
      "stateMutability": "view",
      "type": "function",
      "constant": true
    },
    {
      "inputs": [],
      "name": "getNameCount",
      "outputs": [
        {
          "internalType": "uint256",
          "name": "",
          "type": "uint256"
        }
      ],
      "stateMutability": "view",
      "type": "function",
      "constant": true
    }
  ],
  "bytecode": "0x608060405234801561001057600080fd5b5061086e806100206000396000f3fe608060405234801561001057600080fd5b506004361061004c5760003560e01c8063063cfccb146100515780631d4b0c091461006d5780636b8ff5741461008b578063fb825e5f146100bb575b600080fd5b61006b6004803603810190610066919061043a565b6100d9565b005b610075610118565b6040516100829190610652565b60405180910390f35b6100a560048036038101906100a0919061047b565b610124565b6040516100b29190610610565b60405180910390f35b6100c3610241565b6040516100d091906105ee565b60405180910390f35b60008190806001815401808255809150506001900390600052602060002001600090919091909150908051906020019061011492919061031a565b5050565b60008080549050905090565b6060600080549050821061016d576040517f08c379a000000000000000000000000000000000000000000000000000000000815260040161016490610632565b60405180910390fd5b600082815481106101a7577f4e487b7100000000000000000000000000000000000000000000000000000000600052603260045260246000fd5b9060005260206000200180546101bc90610780565b80601f01602080910402602001604051908101604052809291908181526020018280546101e890610780565b80156102355780601f1061020a57610100808354040283529160200191610235565b820191906000526020600020905b81548152906001019060200180831161021857829003601f168201915b50505050509050919050565b60606000805480602002602001604051908101604052809291908181526020016000905b8282101561031157838290600052602060002001805461028490610780565b80601f01602080910402602001604051908101604052809291908181526020018280546102b090610780565b80156102fd5780601f106102d2576101008083540402835291602001916102fd565b820191906000526020600020905b8154815290600101906020018083116102e057829003601f168201915b505050505081526020019060010190610265565b50505050905090565b82805461032690610780565b90600052602060002090601f016020900481019282610348576000855561038f565b82601f1061036157805160ff191683800117855561038f565b8280016001018555821561038f579182015b8281111561038e578251825591602001919060010190610373565b5b50905061039c91906103a0565b5090565b5b808211156103b95760008160009055506001016103a1565b5090565b60006103d06103cb8461069e565b61066d565b9050828152602081018484840111156103e857600080fd5b6103f384828561073e565b509392505050565b600082601f83011261040c57600080fd5b813561041c8482602086016103bd565b91505092915050565b60008135905061043481610821565b92915050565b60006020828403121561044c57600080fd5b600082013567ffffffffffffffff81111561046657600080fd5b610472848285016103fb565b91505092915050565b60006020828403121561048d57600080fd5b600061049b84828501610425565b91505092915050565b60006104b0838361052d565b905092915050565b60006104c3826106de565b6104cd8185610701565b9350836020820285016104df856106ce565b8060005b8581101561051b57848403895281516104fc85826104a4565b9450610507836106f4565b925060208a019950506001810190506104e3565b50829750879550505050505092915050565b6000610538826106e9565b6105428185610712565b935061055281856020860161074d565b61055b81610810565b840191505092915050565b6000610571826106e9565b61057b8185610723565b935061058b81856020860161074d565b61059481610810565b840191505092915050565b60006105ac601383610723565b91507f496e646578206f7574206f6620626f756e6473000000000000000000000000006000830152602082019050919050565b6105e881610734565b82525050565b6000602082019050818103600083015261060881846104b8565b905092915050565b6000602082019050818103600083015261062a8184610566565b905092915050565b6000602082019050818103600083015261064b8161059f565b9050919050565b600060208201905061066760008301846105df565b92915050565b6000604051905081810181811067ffffffffffffffff82111715610694576106936107e1565b5b8060405250919050565b600067ffffffffffffffff8211156106b9576106b86107e1565b5b601f19601f8301169050602081019050919050565b6000819050602082019050919050565b600081519050919050565b600081519050919050565b6000602082019050919050565b600082825260208201905092915050565b600082825260208201905092915050565b600082825260208201905092915050565b6000819050919050565b82818337600083830152505050565b60005b8381101561076b578082015181840152602081019050610750565b8381111561077a576000848401525b50505050565b6000600282049050600182168061079857607f821691505b602082108114156107ac576107ab6107b2565b5b50919050565b7f4e487b7100000000000000000000000000000000000000000000000000000000600052602260045260246000fd5b7f4e487b7100000000000000000000000000000000000000000000000000000000600052604160045260246000fd5b6000601f19601f8301169050919050565b61082a81610734565b811461083557600080fd5b5056fea26469706673582212208855daed4c1a8be5c954f93691f1e2278a12b2deb53eaa466b801754c023f1da64736f6c63430008000033",
  "immutableReferences": {},
  "source": "// SPDX-License-Identifier: MIT\r\npragma solidity ^0.8.0;\r\n\r\ncontract NameStorage {\r\n    string[] private storedNames;\r\n    \r\n    function storeName(string memory _name) public {\r\n        storedNames.push(_name);\r\n    }\r\n    \r\n    function getName(uint256 index) public view returns (string memory) {\r\n        require(index < storedNames.length, \"Index out of bounds\");\r\n        return storedNames[index];\r\n    }\r\n    \r\n    function getAllNames() public view returns (string[] memory) {\r\n        return storedNames;\r\n    }\r\n    \r\n    function getNameCount() public view returns (uint256) {\r\n        return storedNames.length;\r\n    }\r\n} ",
  "sourcePath": "E:\\test\\dapp\\contracts\\NameStorage.sol",
  "compiler": {
    "name": "solc",
    "version": "0.8.0+commit.c7dfd78e.Emscripten.clang"
  },
  "schemaVersion": "3.4.16",
  "updatedAt": "2025-01-24T20:09:13.697Z",
  "networkType": "ethereum",
  "devdoc": {
    "kind": "dev",
    "methods": {},
    "version": 1
  },
  "userdoc": {
    "kind": "user",
    "methods": {},
    "version": 1
  }
}