{
  "contractName": "UserAuthentication",
  "abi": [
    {
      "inputs": [
        {
          "internalType": "address",
          "name": "",
          "type": "address"
        }
      ],
      "name": "usersMapping",
      "outputs": [
        {
          "internalType": "string",
          "name": "username",
          "type": "string"
        },
        {
          "internalType": "bytes32",
          "name": "passwordHash",
          "type": "bytes32"
        }
      ],
      "stateMutability": "view",
      "type": "function",
      "constant": true
    },
    {
      "inputs": [
        {
          "internalType": "string",
          "name": "_username",
          "type": "string"
        },
        {
          "internalType": "bytes32",
          "name": "_passwordHash",
          "type": "bytes32"
        }
      ],
      "name": "register",
      "outputs": [],
      "stateMutability": "nonpayable",
      "type": "function"
    },
    {
      "inputs": [
        {
          "internalType": "string",
          "name": "_username",
          "type": "string"
        },
        {
          "internalType": "bytes32",
          "name": "_passwordHash",
          "type": "bytes32"
        }
      ],
      "name": "validateUser",
      "outputs": [
        {
          "internalType": "bool",
          "name": "",
          "type": "bool"
        }
      ],
      "stateMutability": "view",
      "type": "function",
      "constant": true
    },
    {
      "inputs": [],
      "name": "getUserCount",
      "outputs": [
        {
          "internalType": "uint256",
          "name": "",
          "type": "uint256"
        }
      ],
      "stateMutability": "view",
      "type": "function",
      "constant": true
    },
    {
      "inputs": [
        {
          "internalType": "uint256",
          "name": "index",
          "type": "uint256"
        }
      ],
      "name": "getUser",
      "outputs": [
        {
          "internalType": "string",
          "name": "username",
          "type": "string"
        },
        {
          "internalType": "bytes32",
          "name": "passwordHash",
          "type": "bytes32"
        }
      ],
      "stateMutability": "view",
      "type": "function",
      "constant": true
    }
  ],
  "bytecode": "0x608060405234801561001057600080fd5b50610c3e806100206000396000f3fe608060405234801561001057600080fd5b50600436106100575760003560e01c806348ab214a1461005c578063656afdee1461008d578063b0467deb146100a9578063b5cb15f7146100da578063f49d9b9e146100f8575b600080fd5b61007660048036038101906100719190610681565b610128565b604051610084929190610946565b60405180910390f35b6100a760048036038101906100a291906106aa565b6101d4565b005b6100c360048036038101906100be91906106fe565b610349565b6040516100d1929190610946565b60405180910390f35b6100e261047d565b6040516100ef91906109d6565b60405180910390f35b610112600480360381019061010d91906106aa565b610489565b60405161011f919061092b565b60405180910390f35b600160205280600052604060002060009150905080600001805461014b90610b22565b80601f016020809104026020016040519081016040528092919081815260200182805461017790610b22565b80156101c45780601f10610199576101008083540402835291602001916101c4565b820191906000526020600020905b8154815290600101906020018083116101a757829003601f168201915b5050505050908060010154905082565b6000825111610218576040517f08c379a000000000000000000000000000000000000000000000000000000000815260040161020f906109b6565b60405180910390fd5b6000801b81141561025e576040517f08c379a000000000000000000000000000000000000000000000000000000000815260040161025590610976565b60405180910390fd5b6000604051806040016040528084815260200183815250908060018154018082558091505060019003906000526020600020906002020160009091909190915060008201518160000190805190602001906102ba929190610537565b50602082015181600101555050604051806040016040528083815260200182815250600160003373ffffffffffffffffffffffffffffffffffffffff1673ffffffffffffffffffffffffffffffffffffffff1681526020019081526020016000206000820151816000019080519060200190610337929190610537565b50602082015181600101559050505050565b6060600080805490508310610393576040517f08c379a000000000000000000000000000000000000000000000000000000000815260040161038a90610996565b60405180910390fd5b60008084815481106103ce577f4e487b7100000000000000000000000000000000000000000000000000000000600052603260045260246000fd5b906000526020600020906002020190508060000181600101548180546103f390610b22565b80601f016020809104026020016040519081016040528092919081815260200182805461041f90610b22565b801561046c5780601f106104415761010080835404028352916020019161046c565b820191906000526020600020905b81548152906001019060200180831161044f57829003601f168201915b505050505091509250925050915091565b60008080549050905090565b600080600160003373ffffffffffffffffffffffffffffffffffffffff1673ffffffffffffffffffffffffffffffffffffffff1681526020019081526020016000209050836040516020016104de91906108fd565b60405160208183030381529060405280519060200120816000016040516020016105089190610914565b6040516020818303038152906040528051906020012014801561052e5750828160010154145b91505092915050565b82805461054390610b22565b90600052602060002090601f01602090048101928261056557600085556105ac565b82601f1061057e57805160ff19168380011785556105ac565b828001600101855582156105ac579182015b828111156105ab578251825591602001919060010190610590565b5b5090506105b991906105bd565b5090565b5b808211156105d65760008160009055506001016105be565b5090565b60006105ed6105e884610a22565b6109f1565b90508281526020810184848401111561060557600080fd5b610610848285610ae0565b509392505050565b60008135905061062781610bc3565b92915050565b60008135905061063c81610bda565b92915050565b600082601f83011261065357600080fd5b81356106638482602086016105da565b91505092915050565b60008135905061067b81610bf1565b92915050565b60006020828403121561069357600080fd5b60006106a184828501610618565b91505092915050565b600080604083850312156106bd57600080fd5b600083013567ffffffffffffffff8111156106d757600080fd5b6106e385828601610642565b92505060206106f48582860161062d565b9150509250929050565b60006020828403121561071057600080fd5b600061071e8482850161066c565b91505092915050565b61073081610aa0565b82525050565b61073f81610aac565b82525050565b600061075082610a67565b61075a8185610a72565b935061076a818560208601610aef565b61077381610bb2565b840191505092915050565b600061078982610a67565b6107938185610a83565b93506107a3818560208601610aef565b80840191505092915050565b600081546107bc81610b22565b6107c68186610a83565b945060018216600081146107e157600181146107f257610825565b60ff19831686528186019350610825565b6107fb85610a52565b60005b8381101561081d578154818901526001820191506020810190506107fe565b838801955050505b50505092915050565b600061083b601483610a72565b91507f50617373776f72642069732072657175697265640000000000000000000000006000830152602082019050919050565b600061087b601883610a72565b91507f5573657220696e646578206f7574206f6620626f756e647300000000000000006000830152602082019050919050565b60006108bb601483610a72565b91507f557365726e616d652069732072657175697265640000000000000000000000006000830152602082019050919050565b6108f781610ad6565b82525050565b6000610909828461077e565b915081905092915050565b600061092082846107af565b915081905092915050565b60006020820190506109406000830184610727565b92915050565b600060408201905081810360008301526109608185610745565b905061096f6020830184610736565b9392505050565b6000602082019050818103600083015261098f8161082e565b9050919050565b600060208201905081810360008301526109af8161086e565b9050919050565b600060208201905081810360008301526109cf816108ae565b9050919050565b60006020820190506109eb60008301846108ee565b92915050565b6000604051905081810181811067ffffffffffffffff82111715610a1857610a17610b83565b5b8060405250919050565b600067ffffffffffffffff821115610a3d57610a3c610b83565b5b601f19601f8301169050602081019050919050565b60008190508160005260206000209050919050565b600081519050919050565b600082825260208201905092915050565b600081905092915050565b6000610a9982610ab6565b9050919050565b60008115159050919050565b6000819050919050565b600073ffffffffffffffffffffffffffffffffffffffff82169050919050565b6000819050919050565b82818337600083830152505050565b60005b83811015610b0d578082015181840152602081019050610af2565b83811115610b1c576000848401525b50505050565b60006002820490506001821680610b3a57607f821691505b60208210811415610b4e57610b4d610b54565b5b50919050565b7f4e487b7100000000000000000000000000000000000000000000000000000000600052602260045260246000fd5b7f4e487b7100000000000000000000000000000000000000000000000000000000600052604160045260246000fd5b6000601f19601f8301169050919050565b610bcc81610a8e565b8114610bd757600080fd5b50565b610be381610aac565b8114610bee57600080fd5b50565b610bfa81610ad6565b8114610c0557600080fd5b5056fea2646970667358221220fcf3c0b5a97b918a7eee69b44fc18f433cb2357da6da2446e6f4ad9becf51fc764736f6c63430008000033",
  "immutableReferences": {},
  "source": "// SPDX-License-Identifier: MIT\r\npragma solidity ^0.8.0;\r\n\r\ncontract UserAuthentication {\r\n    struct User {\r\n        string username;\r\n        bytes32 passwordHash;\r\n    }\r\n    \r\n    User[] private users;\r\n\r\n    mapping(address => User) public usersMapping;\r\n\r\n    // Register a new user\r\n    function register(string memory _username, bytes32 _passwordHash) public {\r\n        require(bytes(_username).length > 0, \"Username is required\");\r\n        require(_passwordHash != 0, \"Password is required\");\r\n\r\n        users.push(User({\r\n            username: _username,\r\n            passwordHash: _passwordHash\r\n        }));\r\n        \r\n        usersMapping[msg.sender] = User({\r\n            username: _username,\r\n            passwordHash: _passwordHash\r\n        });\r\n    }\r\n\r\n    // Update the validation function to use bytes32 for password\r\n    function validateUser(string memory _username, bytes32 _passwordHash) public view returns (bool) {\r\n        User storage user = usersMapping[msg.sender];\r\n        \r\n        return (keccak256(abi.encodePacked(user.username)) == keccak256(abi.encodePacked(_username)) &&\r\n                user.passwordHash == _passwordHash);\r\n    }\r\n\r\n    function getUserCount() public view returns (uint256) {\r\n        return users.length;\r\n    }\r\n\r\n    function getUser(uint256 index) public view returns (string memory username, bytes32 passwordHash) {\r\n        require(index < users.length, \"User index out of bounds\");\r\n        User storage user = users[index];\r\n        return (user.username, user.passwordHash);\r\n    }\r\n}\r\n",
  "sourcePath": "E:\\Web 3.0\\blockchain\\dapp-auth\\dapp\\contracts\\UserAuthentication.sol",
  "compiler": {
    "name": "solc",
    "version": "0.8.0+commit.c7dfd78e.Emscripten.clang"
  },
  "schemaVersion": "3.4.16",
  "updatedAt": "2025-01-25T09:54:39.676Z",
  "networkType": "ethereum",
  "devdoc": {
    "kind": "dev",
    "methods": {},
    "version": 1
  },
  "userdoc": {
    "kind": "user",
    "methods": {},
    "version": 1
  }
}