{
  "contractName": "UserAuthentication",
  "abi": [
    {
      "inputs": [
        {
          "internalType": "address",
          "name": "",
          "type": "address"
        }
      ],
      "name": "users",
      "outputs": [
        {
          "internalType": "string",
          "name": "username",
          "type": "string"
        },
        {
          "internalType": "string",
          "name": "passwordHash",
          "type": "string"
        }
      ],
      "stateMutability": "view",
      "type": "function",
      "constant": true
    },
    {
      "inputs": [
        {
          "internalType": "string",
          "name": "username",
          "type": "string"
        },
        {
          "internalType": "string",
          "name": "passwordHash",
          "type": "string"
        }
      ],
      "name": "register",
      "outputs": [],
      "stateMutability": "nonpayable",
      "type": "function"
    },
    {
      "inputs": [
        {
          "internalType": "string",
          "name": "username",
          "type": "string"
        },
        {
          "internalType": "string",
          "name": "passwordHash",
          "type": "string"
        }
      ],
      "name": "validateUser",
      "outputs": [
        {
          "internalType": "bool",
          "name": "",
          "type": "bool"
        }
      ],
      "stateMutability": "view",
      "type": "function",
      "constant": true
    }
  ],
  "bytecode": "0x608060405234801561001057600080fd5b50610a4c806100206000396000f3fe608060405234801561001057600080fd5b50600436106100415760003560e01c80633ffbd47f14610046578063766cf30e14610062578063a87430ba14610092575b600080fd5b610060600480360381019061005b919061059d565b6100c3565b005b61007c6004803603810190610077919061059d565b6101df565b60405161008991906107af565b60405180910390f35b6100ac60048036038101906100a79190610574565b610320565b6040516100ba9291906107ca565b60405180910390f35b6000825111610107576040517f08c379a00000000000000000000000000000000000000000000000000000000081526004016100fe90610821565b60405180910390fd5b600081511161014b576040517f08c379a000000000000000000000000000000000000000000000000000000000815260040161014290610801565b60405180910390fd5b6040518060400160405280838152602001828152506000803373ffffffffffffffffffffffffffffffffffffffff1673ffffffffffffffffffffffffffffffffffffffff16815260200190815260200160002060008201518160000190805190602001906101ba929190610454565b5060208201518160010190805190602001906101d7929190610454565b509050505050565b6000826040516020016101f29190610781565b604051602081830303815290604052805190602001206000803373ffffffffffffffffffffffffffffffffffffffff1673ffffffffffffffffffffffffffffffffffffffff1681526020019081526020016000206000016040516020016102599190610798565b604051602081830303815290604052805190602001201480156103075750816040516020016102889190610781565b604051602081830303815290604052805190602001206000803373ffffffffffffffffffffffffffffffffffffffff1673ffffffffffffffffffffffffffffffffffffffff1681526020019081526020016000206001016040516020016102ef9190610798565b60405160208183030381529060405280519060200120145b15610315576001905061031a565b600090505b92915050565b60006020528060005260406000206000915090508060000180546103439061095e565b80601f016020809104026020016040519081016040528092919081815260200182805461036f9061095e565b80156103bc5780601f10610391576101008083540402835291602001916103bc565b820191906000526020600020905b81548152906001019060200180831161039f57829003601f168201915b5050505050908060010180546103d19061095e565b80601f01602080910402602001604051908101604052809291908181526020018280546103fd9061095e565b801561044a5780601f1061041f5761010080835404028352916020019161044a565b820191906000526020600020905b81548152906001019060200180831161042d57829003601f168201915b5050505050905082565b8280546104609061095e565b90600052602060002090601f01602090048101928261048257600085556104c9565b82601f1061049b57805160ff19168380011785556104c9565b828001600101855582156104c9579182015b828111156104c85782518255916020019190600101906104ad565b5b5090506104d691906104da565b5090565b5b808211156104f35760008160009055506001016104db565b5090565b600061050a61050584610872565b610841565b90508281526020810184848401111561052257600080fd5b61052d84828561091c565b509392505050565b600081359050610544816109ff565b92915050565b600082601f83011261055b57600080fd5b813561056b8482602086016104f7565b91505092915050565b60006020828403121561058657600080fd5b600061059484828501610535565b91505092915050565b600080604083850312156105b057600080fd5b600083013567ffffffffffffffff8111156105ca57600080fd5b6105d68582860161054a565b925050602083013567ffffffffffffffff8111156105f357600080fd5b6105ff8582860161054a565b9150509250929050565b610612816108f0565b82525050565b6000610623826108b7565b61062d81856108c2565b935061063d81856020860161092b565b610646816109ee565b840191505092915050565b600061065c826108b7565b61066681856108d3565b935061067681856020860161092b565b80840191505092915050565b6000815461068f8161095e565b61069981866108d3565b945060018216600081146106b457600181146106c5576106f8565b60ff198316865281860193506106f8565b6106ce856108a2565b60005b838110156106f0578154818901526001820191506020810190506106d1565b838801955050505b50505092915050565b600061070e6014836108c2565b91507f50617373776f72642069732072657175697265640000000000000000000000006000830152602082019050919050565b600061074e6014836108c2565b91507f557365726e616d652069732072657175697265640000000000000000000000006000830152602082019050919050565b600061078d8284610651565b915081905092915050565b60006107a48284610682565b915081905092915050565b60006020820190506107c46000830184610609565b92915050565b600060408201905081810360008301526107e48185610618565b905081810360208301526107f88184610618565b90509392505050565b6000602082019050818103600083015261081a81610701565b9050919050565b6000602082019050818103600083015261083a81610741565b9050919050565b6000604051905081810181811067ffffffffffffffff82111715610868576108676109bf565b5b8060405250919050565b600067ffffffffffffffff82111561088d5761088c6109bf565b5b601f19601f8301169050602081019050919050565b60008190508160005260206000209050919050565b600081519050919050565b600082825260208201905092915050565b600081905092915050565b60006108e9826108fc565b9050919050565b60008115159050919050565b600073ffffffffffffffffffffffffffffffffffffffff82169050919050565b82818337600083830152505050565b60005b8381101561094957808201518184015260208101905061092e565b83811115610958576000848401525b50505050565b6000600282049050600182168061097657607f821691505b6020821081141561098a57610989610990565b5b50919050565b7f4e487b7100000000000000000000000000000000000000000000000000000000600052602260045260246000fd5b7f4e487b7100000000000000000000000000000000000000000000000000000000600052604160045260246000fd5b6000601f19601f8301169050919050565b610a08816108de565b8114610a1357600080fd5b5056fea2646970667358221220dd0032c6bc54b5464c03af29650d94a4a93ebb359e7891dbf8348a81857b14c364736f6c63430008000033",
  "immutableReferences": {},
  "source": "// SPDX-License-Identifier: MIT\r\npragma solidity ^0.8.0;\r\n\r\ncontract UserAuthentication {\r\n    struct User {\r\n        string username;\r\n        string passwordHash;  // Store hashed password for security\r\n    }\r\n    \r\n    mapping(address => User) public users;\r\n\r\n    // Register a new user\r\n    function register(string memory username, string memory passwordHash) public {\r\n        require(bytes(username).length > 0, \"Username is required\");\r\n        require(bytes(passwordHash).length > 0, \"Password is required\");\r\n\r\n        users[msg.sender] = User(username, passwordHash);\r\n    }\r\n\r\n    // Validate user credentials (just a simple example)\r\n    function validateUser(string memory username, string memory passwordHash) public view returns (bool) {\r\n        if (keccak256(abi.encodePacked(users[msg.sender].username)) == keccak256(abi.encodePacked(username)) &&\r\n            keccak256(abi.encodePacked(users[msg.sender].passwordHash)) == keccak256(abi.encodePacked(passwordHash))) {\r\n            return true;\r\n        }\r\n        return false;\r\n    }\r\n}\r\n",
  "sourcePath": "E:\\test\\dapp\\contracts\\UserAuthentication.sol",
  "compiler": {
    "name": "solc",
    "version": "0.8.0+commit.c7dfd78e.Emscripten.clang"
  },
  "schemaVersion": "3.4.16",
  "updatedAt": "2025-01-24T20:09:13.821Z",
  "networkType": "ethereum",
  "devdoc": {
    "kind": "dev",
    "methods": {},
    "version": 1
  },
  "userdoc": {
    "kind": "user",
    "methods": {},
    "version": 1
  }
}